:10019400C0F9A4B0999282F880908883C6A1868E13
:0101A400FF5B
:1001A500758DFBE4F58BD28E308FFDC28EC28F220A
:10016200E4FDFCEFFBC3ED9B7480F86C98500A121F
:0901720001A50DBD00010C80EA9D
:01017B002261
:10017C00E4FDFCC3ED9FEE6480F8EC6480985007BE
:07018C000DBD00010C80EC29
:010193002249
:10008E00AB07AA067C037DE81200038F0D7C037D6F
:10009E00E8AF03AE02120003AA04AB057C007D6438
:1000AE00AF03AE021200038F0C7C007D64AF03AE73
:1000BE0002120003AA04AB057C007D0AAF03AE0258
:1000CE001200038F0BAE02AF037C007D0A120003F9
:0200DE008D0A89
:0100E00022FD
:1000E100E50A90019493F590C2B07F327E0012012F
:1000F1007C20B702D200D2B0E50B90019493F59029
:10010100C2B17F327E0012017CD2B1E50C93F59031
:10011100C2B27F3212017CD2B2E50D93F590C2B327
:070121007F3212017CD2B312
:0101280022B4
:100129007590FF75B0FFE4F508F509AF09AE08123F
:10013900008EAF0E7E0012008E1200E130000AC25E
:10014900000509E50970020508E509640F4508700D
:09015900E1050EF508F50980D955
:030000000201B545
:0C01B500787FE4F6D8FD75812002012956
:10000300C2D5EC30E709B2D5E4C39DFDE49CFCEE18
:1000130030E715B2D5E4C39FFFE49EFE120039C357
:10002300E49DFDE49CFC800312003930D507C3E452
:060033009FFFE49EFE2287
:10003900BC000BBE0029EF8DF084FFADF022E4CCAB
:10004900F875F008EF2FFFEE33FEEC33FCEE9DEC74
:10005900984005FCEE9DFE0FD5F0E9E4CEFD22EDBA
:10006900F8F5F0EE8420D21CFEADF075F008EF2F04
:10007900FFED33FD4007985006D5F0F222C398FDF5
:050089000FD5F0EA2292
:00000001FF
