:10006E0048454C4C4F000D0A004E68617020766179
:10007E006F206B79207475207468756F6E673A20E7
:04008E00002D3E0003
:10000300758920758DFD759850D28E7BFF7A0079A6
:100013006E1200497BFF7A0079741200497BFF7AE4
:100023000079771200491200B78F0874E02508F5AC
:10003300087BFF7A00798F120049AF081200C27F54
:060043000A1200C280D782
:0800C2008F993099FDC29922CB
:100049008B098A0A890BAB09AA0AA90B12009260CB
:1000590013050BE50B7002050A14F9120092FF1241
:0500690000C280E2224C
:0B00B7003098FD85990CC298AF0C2218
:030000000200AB50
:0C00AB00787FE4F6D8FD75810C0200039C
:10009200BB010689828A83E0225002E722BBFE026C
:0900A200E32289828A83E493229F
:00000001FF
