:10031C004C4F4144494E472E2E2E00563A20002772
:06032C0020004B3A200006
:0B035900063A244750474C4C0153006B
:10002600758920758DFD75985075A890D2BCD28EB5
:100036001202E17BFF7A03791C1202BCE5506422AE
:100046006003020166C2AFF55174082551F8E6FF58
:10005600B42C020553E55324FE601D146020146081
:100066002D2403703774092551F8E6FEAD5205526A
:1000760074402DF8A606802474402552801B74090E
:100086002551F8E6FFAE4F054F742B2E800B7408F2
:100096002551F8E6FF742B254FF8A6070551E551C3
:1000A600642270A57F0112027B7F8012027B7BFF98
:1000B6007A0379271202BCE4F5521202390552E599
:1000C60052D3940140F47FDF1202407F2012024097
:1000D6007552021202390552E552D3940640F412C3
:1000E60002B67B007A007940120332EF14F55224EF
:1000F60040F8E6FF1202407FC012027B7BFF7A03C4
:10010600792E1202BCE4F54F742B254FF8E6FF1248
:100116000240054FE54FD3940240ED7FDF120240C7
:100126007F20120240754F03742B254FF8E6FF120D
:100136000240054FE54FD3940740ED1202B67B000F
:100146007A00792B120332EF14F54F242BF8E6FFD1
:10015600120240E4F5507FF47E01120003020042D1
:05016600D2AF020042CF
:030023000201F7E0
:1001F700C0E0C0D075D000C000C006C007AF500532
:100207005074082FF8A699C3E5506480948650155A
:10021700AF5074392FF8E6FFAE5074072EF8E66F2B
:100227006003755000C298D007D006D000D0D0D058
:02023700E032B3
:10027B008F54E55454F0F5A0C2A0C2A1D2A27F14B2
:10028B007E00120365C2A27F967E00120365E554C1
:10029B00C454F0F5A0C2A0C2A1D2A27F147E00125A
:0B02AB000365C2A27F967E000203657F
:1002E100E4F5A07F01FE1200037F0312027B7F026F
:1002F10012027B7F2812027B7F0112027B7F0C029C
:02030100027B7D
:0702390074402552F8E6FFB6
:100240008F57E55754F0F5A0D2A0C2A1D2A27F0AE1
:100250007E00120365C2A27F647E00120365E5572B
:10026000C454F0F5A0D2A0C2A1D2A27F0A7E00128F
:0B0270000365C2A27F647E00020365EC
:0602B6007BFF7A03792BA7
:1002BC008B548A558956AB54AA55A9561203036020
:1002CC00130556E5567002055514F9120303FF1277
:0502DC00024080E22257
:10000300E4FDFCC3ED9FEC9E5015E4FBFA0BBB0033
:0F001300010AEB647B4A70F50DBD00010C80E41F
:0100220022BB
:10034700E4FDFCC3ED9FEC9E50070DBD00010C8042
:01035700F2B3
:010358002282
:0B036500EF1FAC0670011E4C70F6226A
:0300000002016B8F
:0C016B00787FE4F6D8FD7581570201B2E0
:10030300BB010689828A83E0225002E722BBFE02F8
:09031300E32289828A83E493222B
:10033200E4FFFE120303600C0FEF70010E09E97077
:05034200F20A80EF2229
:10017700020026E493A3F8E493A34003F68001F278
:1001870008DFF48029E493A3F85407240CC8C33389
:10019700C4540F4420C8834004F456800146F6DF58
:1001A700E4800B0102040810204080900359E47E8C
:1001B700019360BCA3FF543F30E509541FFEE4934D
:1001C700A360010ECF54C025E060A840B8E493A314
:1001D700FAE493A3F8E493A3C8C582C8CAC583CA3F
:1001E700F0A3C8C582C8CAC583CADFE9DEE780BEF7
:010364000098
:00000001FF
