:10066F00444F204E4849455420444F0025642E25C1
:02067F00640015
:10047A0012062D7F831204ED7BFF7A06796F12052F
:10048A00E47FC51204ED1203FFAE2AAF2B7C007D78
:10049A0064120378EEC4F854F0C868F52AEFC4541D
:1004AA000F48F52B750BFF750C06750D7B85280E0D
:1004BA0085290F852A10852B117B007A0079221253
:1004CA00005F7B007A0079221205E47FDF1205289B
:1004DA007F431205287FD07E0712064F7F01120440
:0304EA00ED809012
:10060900D2B7C2B77F1D7E00120681D2B77F037EA3
:1006190000120681A2B7E433F50A7F197E0012069B
:03062900C0AF0A55
:01062C0022AB
:10069300C2B7BF0102D2B77F057E00120681D2B76F
:0106A3002234
:020563008F0AFD
:10056500E4F50BAF0BE50AA807088003A2E713D84B
:10057500FBF50C530C01AF0C120693050BE50BC3F1
:0B058500940840DF7F057E0002068125
:0F06A400C2B7D2B7E4FF0FBF03FCA2B7E433FF26
:0106B3002224
:10059000E4F50BF50A1206A4EF600FAF0A7401A888
:1005A00007088002C333D8FC420B7F057E00120689
:0C05B00081050AE50AC3940840DBAF0B8C
:0105BC00221C
:1003FF00E4F508F509120609EF70167FCC120563B4
:10040F007F4E1205637F1F1205637F057E00120664
:10041F0081120609EF70117FCC1205637F4412051C
:10042F00637F057E00120681120609EF70117FCCE3
:10043F001205637FBE1205637F037E0012068112D1
:10044F0005908F081205908F09EFFE7C00E42508B8
:10045F00FDEC3EC4F854F0C868F528EDC4540F48BD
:0A046F00F529752A00ED540FF52B56
:010479002260
:1004ED008F08E50854F0F5A0C2A0C2A1D2A27F14D6
:1004FD007E001206C0C2A27F967E001206C0E508DD
:10050D00C454F0F5A0C2A0C2A1D2A27F147E0012E5
:0B051D0006C0C2A27F967E000206C04E
:10062D00E4F5A07F01FE12064F7F031204ED7F0259
:10063D001204ED7F281204ED7F011204ED7F0C02F0
:02064D0004EDBA
:100528008F0BE50B54F0F5A0D2A0C2A1D2A27F0A8E
:100538007E001206C0C2A27F647E001206C0E50BD0
:10054800C454F0F5A0D2A0C2A1D2A27F0A7E0012A4
:0B05580006C0C2A27F647E000206C045
:1005E4008B088A09890AAB08AA09A90A12035F6061
:1005F40013050AE50A7002050914F912035FFF12D4
:05060400052880E22240
:10064F00E4FDFCC3ED9FEC9E5015E4FBFA0BBB00E1
:0F065F00010AEB647B4A70F50DBD00010C80E4CD
:01066E002269
:10068100E4FDFCC3ED9FEC9E50070DBD00010C8005
:01069100F276
:010692002245
:0B06C000EF1FAC0670011E4C70F6220C
:030000000206B441
:0C06B400787FE4F6D8FD75812B02047AF3
:10035F00BB010689828A83E0225002E722BBFE029C
:09036F00E32289828A83E49322CF
:10037800EF8DF0A4A8F0CF8CF0A428CE8DF0A42E99
:02038800FE2253
:10000300E517240BF8E60517227808300702780B6A
:10001300E475F0011203C902035F2000EB7F2ED2C7
:10002300008018EF540F2490D43440D4FF30040BD5
:10003300EF24BFB41A0050032461FFE518600215D2
:1000430018051BE51B7002051A30070D7808E475C7
:10005300F0011203C9EF0203B70205BD7403D2070F
:100063008003E4C207F5178B088A09890AE4F518A7
:10007300F51AF51BE51860077F2012003E80F57521
:1000830019FFC201C200C202C203C205C206C208EE
:1000930012000CFF700D3007057F0012004FAF1BDD
:1000A300AE1A22B4255FC2D5C20412000CFF24D0BD
:1000B300B40A00501A75F00A781830D50508B6FF4F
:1000C3000106C6A426F620D5047002D20380D924E3
:1000D300CFB41A00EF5004C2E5D20402024FD2019A
:1000E30080C6D20080C0D20280BCD2D580BAD205ED
:1000F30080B47F2012003E2002077401B51800402F
:10010300F1120003FF12003E020077D208D20680EC
:1001130095120003FB120003FA120003F94A4B7015
:100123000679207A037BFF20022EE518602A7E00E1
:100133008E8275830012038A60060EEE651970F0D5
:10014300C2D5EBC0E0EAC0E0E9C0E0EE120296D00F
:10015300E0F9D0E0FAD0E0FB12035FFF60AAEBC046
:10016300E0EAC0E0E9C0E012003ED0E02401F9D0AB
:10017300E03400FAD0E0FBE5190460DCD519D9803E
:10018300877BFF7A027992D202809C791080027970
:1001930008C206C2088008D2D5790A8004790AC247
:1001A300D5E519047002F519E4FAFDFEFF12000308
:1001B300FC7B08200113120003FD7B1030000A12A0
:1001C3000003FE120003FF7B20EC3382D592D5504F
:1001D30013C3E43000069FFFE49EFEE42001039D69
:1001E300FDE49CFCE4CBF8C201EC700CCFCECDCC8B
:1001F300E824F8F870F38017C3EF33FFEE33FEED16
:1002030033FDEC33FCEB33FB994002FB0FD8E9EBF6
:10021300300105F8D0E0C448B201C0E00AEC4D4E0D
:100223004F78207B0070C2EAB5190040BCC0E012D1
:100233000298D0F0D0E0200104C4C0E0C4B201C0F1
:10024300F0120027D0F0D5F0EB0200771203D901AA
:100253001453018E5800E54C00E14201924F019A7C
:0F02630044019A4900FA4301A0550184460184E1
:100272004501844703405000E92D00ED2E01102B6B
:1002820000F123010E2003292A00A94800000108D9
:100292003F3F3F00790AA2D5200314300509B91067
:1002A200020404B9080104A2D52006025001042068
:1002B20002689202B518005034C0E07F2030031962
:1002C2007F30A20272067205500F1202EFC202C202
:1002D20006C205C2087F30800F300503E9C0E01274
:1002E200003E300503D0E0F9D0E0B518CC30051758
:1002F2007F30B9100C12003E7F583004077F78809F
:1003020003B9080312003E3002057F2D02003E7F32
:10031200202008F87F2B2006F322920280CF286E3D
:10032200756C6C2900D2011200033001F8C2017809
:100332001830D50108F60200A92D50434958120081
:10034200032403B405004001E490033B9312002F01
:0D035200743A12002FD20375180402018EB8
:10038A00BB010CE58229F582E5833AF583E0225028
:10039A0006E92582F8E622BBFE06E92582F8E22272
:0D03AA00E58229F582E5833AF583E493228C
:1003B700BB010689828A83F0225002F722BBFE0125
:0203C700F3221F
:1003C900FAE6FB0808E6F925F0F618E6CA3AF62235
:1003D900D083D082F8E4937012740193700DA3A3B3
:1003E90093F8740193F5828883E4737402936860C7
:0603F900EFA3A3A380DFC7
:1005BD00EFB40A07740D1205C8740A309811A89982
:1005CD00B8130CC2983098FDA899C298B811F6309E
:0705DD0099FDC299F5992276
:00000001FF
