:1002A400E4FDFCC3ED9FEC9E5015E4FBFA0BBB0090
:0F02B400010AEB647B4A70F50DBD00010C80E47C
:0102C3002218
:1002C400E4FDFCC3ED9FEC9E5015E4FBFA0BBB0070
:0F02D400010AEB64024A70F50DBD00010C80E4D5
:0102E30022F8
:1002E400E4FDFCC3ED9FEC9E5015E4FBFA0BBB0050
:0F02F400010AEB647B4A70F50DBD00010C80E43C
:0103030022D7
:0B033E00EF1FAC0670011E4C70F62291
:1001B500E4F516F517120324120304E4FFFE7D404F
:1001C5007C41AB0DAA0CA90BA80A1200A660E94058
:1001D500E7E4F516F517D2B77F7D7E0012033EC220
:1001E500B77F127E001202E40517E51770020516A7
:1001F500C3941EE516940040DDE4F516F517D2B755
:100205007F427E0012033EC2B77F137E001202E4D6
:100215000517E51770020516C3941EE516940040F0
:0E022500DDD2A0C2A17FE87E031202A4808A6F
:10030400D2B57F0C7E001202A4D2B27F017E00120D
:1003140002C4C2B530B2FDD2AFD2A8D288D28C22E8
:0E032400C2B5758901D28CD2A8D288D2AF2280
:03000300020233C3
:10023300C0E0C0F0C083C082C0D075D000C000C091
:1002430001C002C003C004C005C006C007AF8C755F
:1002530008008F09E509750900F508AF8AEF42091F
:10026300E4AC08AD09120124E4FBFA797078421278
:1002730000098F0D8E0C8D0B8C0AC28CC288C2A80C
:10028300758A00758C00D007D006D005D004D00342
:10029300D002D001D000D0D0D082D083D0F0D0E033
:0102A3003228
:1000060002019CEC5D046005E8590470030201924C
:1000160012015D580460F6EC4860F2EC7004FDFED7
:10002600FF22C860DB2481C85009C39860025006CD
:100036000201999850CAF582E9294B4A7005AB82AC
:1000460002018875F0007C1A7880C3EF9BEE9AED6A
:1000560099400DC3EF9BFFEE9AFEED99FDE842F045
:10006600DC23ACF0D0E0FFD0E0FED0E0FDAB822098
:10007600E7101BEB60BAEC2CFCEF33FFEE33FEED22
:1000860033FD020174E803F830E705C0F075F000AF
:10009600EF2FFFEE33FEED33FD40B830E7C280AA06
:1000A60074F8CC6480CCC86480C8F58204604FC301
:1000B600EB9FF5F0EA9E42F0E99D42F0E89C45F0A0
:1000C600603C501DE5825FFFE582D313CB5BCBF42A
:1000D6002B5582FB50280ABA002409B90020088053
:1000E6001DE5825BFBE582D313CF5FCFF4C3132FED
:1000F6005582FF50090EBE00050DBD00010CC3EB75
:100106009FF5F0EA9E42F0E99D42F0E89C45F060DA
:0901160007CC4820E701B3EC22FC
:10011F0075F020800E75F010800575F0087D007E5B
:10012F00007F003392D530D5031201A7EC33401076
:10013F00EF33FFEE33FEED33FDEC33FCD5F0ED2264
:0E014F00E5F0247EA2D513CC92E7CDCEFF22A0
:10015D00E9D2E7C933E833F892D5EDD2E7CD33ECE8
:07016D0033FC5002B2D52261
:10017400EC30E7100FBF000C0EBE00080DBD0004EC
:100184000BEB6014A2D5EB13FCED92E7FD2274FF98
:10019400FCFDFEFF22E480F8A2D574FF13FC7D80F1
:0301A400E480EF05
:03000000020332C6
:0C033200787FE4F6D8FD7581170201B554
:0E01A700C3E49FFFE49EFEE49DFDE49CFC2269
:00000001FF
