:0C014D000A08C0F9A4B0999282F88090D2
:03000300020140B7
:0D014000C0E00514E51470020513D0E03294
:1000920075A881D288E51430E0FBE51430E0F6E47F
:1000A200F512E512C3946450F1E4F51512010CD275
:1000B200A6E51275F00A842408F8E6F590C2A712A4
:1000C200011CD2A70515E515C3947840DFE514207D
:1000D200E033E4F51612011CE51420E01A12010CBB
:1000E200D2A6E51275F00A842408F8E6F590C2A7B4
:1000F20012011CD2A780E1E51430E0FB0516E516DB
:0A010200C3941440D005120200A4BB
:10010C00E51275F00A84740825F0F8E6F590C2A69D
:04011C007F017E00E1
:10012000E4FDFCC3ED9FEC9E5015E4FBFA0BBB0015
:0F013000010AEB647B4A70F50DBD00010C80E401
:01013F00229D
:03000000020006F5
:0C000600787FE4F6D8FD75811602004DED
:10001200020092E493A3F8E493A34003F68001F272
:1000220008DFF48029E493A3F85407240CC8C333EF
:10003200C4540F4420C8834004F456800146F6DFBE
:10004200E4800B010204081020408090014DE47E00
:10005200019360BCA3FF543F30E509541FFEE493B3
:10006200A360010ECF54C025E060A840B8E493A37A
:10007200FAE493A3F8E493A3C8C582C8CAC583CAA5
:10008200F0A3C8C582C8CAC583CADFE9DEE780BE5D
:0101590000A5
:00000001FF
