:100003007589017590FFE4F5081200776390FF0589
:1000130008E508C3941440F1759055E4F5081200FF
:10002300776390FF0508E508C3941440F17590F0D9
:10003300E4F5081200776390FF0508E508C39414FC
:1000430040F17590FFE4F509E59025E0F590120085
:10005300770509E509C3940840EE7590FFE4F509B7
:10006300E509C39408509CE590C313F590120077FB
:04007300050980EC0F
:10007700E4FFFE758A17758CFCD28C308DFDC28C1F
:0D008700C28D0FBF00010EEF64C84E70E681
:010094002249
:0300000002009566
:0C009500787FE4F6D8FD758109020003B5
:00000001FF
