:10002600FFFFFFFFFFFFFFA0FFFFFFFFF8F4FFEB5F
:1000360080EB80EBDBD580D5EDD8EA94AB8DC9B6E5
:10004600A9DFAFFFFFF8F4FFFFE3DDBEFFFFBEDD74
:10005600E3FFD5E380E3D5F7F7C1F7F7FFA7C7FFBF
:10006600FFF7F7F7F7F7FF9F9FFFFFFFC9C9FFFFEE
:10007600C1AEB6BAC1FFBD80BFFF8DB6B6B6B9DD9B
:10008600BEB6B6C9E7EBED80EFD8BABABAC6C3B505
:10009600B6B6CFFE8EF6FAFCC9B6B6B6C9F9B6B68E
:1000A600D6E1FFC9C9FFFFFFA4C4FFFFF7EBDDBE22
:1000B600FFEBEBEBEBEBFFBEDDEBF7FDFEAEF6F990
:1000C600CDB68EBEC183F5F6F583BE80B6B6C9C180
:1000D600BEBEBEDDBE80BEBEC180B6B6B6BE80F6B2
:1000E600F6FEFEC1BEB6B6C580F7F7F780FFBE8046
:1000F600BEFFDFBFBEC0FE80F7EBDDBE80BFBFBF69
:10010600FF80FDF3FD8080FDFBF780C1BEBEBEC152
:1001160080F6F6F6F9C1BEAEDEA180F6E6D6B9D90E
:10012600B6B6B6CDFEFE80FEFEC0BFBFBFC0E0DFE6
:10013600BFDFE0C0BFCFBFC09CEBF7EB9CFCFB87EB
:10014600FBFC9EAEB6BABCFF80BEBEFFFDFBF7EF62
:10015600DFFFBEBE80FFFBFDFEFDFB7F7F7F7F7F57
:10016600FFFFF8F4FFDFABABABC780C7BBBBC7FF76
:10017600C7BBBBBBC7BBBBC780C7ABABABF7F781C6
:10018600F6F6FDF7ABABABC380F7FBFB87FFBB8295
:10019600BFFFDFBFBBC2FFFF80EFD7BBFFBE80BF85
:1001A600FF83FB87FB8783F7FBFB87C7BBBBBBC70D
:1001B60083EBEBEBF7F7EBEBEB8383F7FBFBF7B7A5
:1001C600ABABABDBFFFBC0BBBBC3BFBFDF83E3DFB8
:1001D600BFDFE3C3BFCFBFC3BBD7EFD7BBF3AFAF61
:1001E600AFC3BB9BABB3BBFBE1E0E1FBE3E3C1E326
:1001F600F7F7E3C1E3E3EFC383C3EFFFFFFFFFFFBF
:1002060048656C6C6F446179206C61206368756F1A
:100216006E67207472696E68204C6564204D61209B
:050226007472616E001E
:0300230002033E97
:09033E00309805C2988599083237
:080347008F993099FDC2992243
:10032200758CFBE4F58AD28C308DFDC28CC28D2295
:10000300E4FDFCC3ED9FEE6480F8EC648098500A35
:0B0013001203220DBD00010C80E92249
:1002CB00E4FEEEC39F5023E4FDEDC3940850048D70
:1002DB009080037590FF74092DF8E6F580120322C8
:0B02EB007580FF0DBD19E20E80D822C7
:10030F001202F6FF600C120347740129F9E43AFA5E
:03031F0080EE224B
:10022B00759850758921758DFD758BFDD28E75A8CE
:10023B0090C299C2987BFF7A02790B12030F7F0D44
:10024B001203477F0A1203477F1A780974FFF608D7
:10025B00DFFCE4FEEE9002069324E0FDE4FC7F1944
:10026B0074082FF8E6FB74092FF8A603DFF275F07C
:10027B0005EDA42CF582E435F0F583E5822426F513
:10028B0082E5833400F583E493F5090CBC05CF7F3D
:10029B001974082FF8E6FD74092FF8A605DFF2751F
:1002AB0009FF0EBE05AE7F1E1202CB7E1974082EFF
:1002BB00F8E6FF74092EF8A607DEF285220980E620
:03000000020332C6
:0C033200787FE4F6D8FD75812302022BD1
:1002F600BB010689828A83E0225002E722BBFE0206
:09030600E32289828A83E4932238
:00000001FF
