:0A01AB004079243019120278001088
:1000F900E4F508F509780B7C00FD7BFF7A0179AB03
:10010900FE7F0A1200D3758905E4F58CF58AD2B40D
:10011900D28CD392A0E58A258CF508B46405E4F560
:100129008AF58CE50875F00A84740B25F0F8E6F574
:1001390090C2B67F017E0012017FD2B6E50875F044
:100149000A84240BF8E6F590C2B77F017E001201FC
:100159007FD2B720A0BCE4F50AE50AC3941450B2D3
:100169007F017E0012017F20A008E4F58AF58C301A
:06017900A0FD050A80E371
:10017F00E4FDFCC3ED9FEC9E5015E4FBFA0BBB00B6
:0F018F00010AEB647B4A70F50DBD00010C80E4A2
:01019E00223E
:0300000002019F5B
:0C019F00787FE4F6D8FD7581140200F9A9
:10000300E709F608DFFA8046E709F208DFFA803EDF
:1000130088828C83E709F0A3DFFA8032E309F608CC
:10002300DFFA8078E309F208DFFA807088828C8334
:10003300E309F0A3DFFA806489828A83E0A3F608E8
:10004300DFFA805889828A83E0A3F208DFFA804CC2
:1000530080D280FA80C680D4806980F28033801099
:1000630080A680EA809A80A880DA80E280CA803302
:1000730089828A83ECFAE493A3C8C582C8CCC5837A
:10008300CCF0A3C8C582C8CCC583CCDFE9DEE7804A
:100093000D89828A83E493A3F608DFF9ECFAA9F0C9
:1000A300EDFB2289828A83ECFAE0A3C8C582C8CC1F
:1000B300C583CCF0A3C8C582C8CCC583CCDFEADE38
:1000C300E880DB89828A83E493A3F208DFF980CC9A
:1000D30088F0EF60010E4E60C388F0ED2402B40493
:1000E3000050B9F582EB2402B4040050AF2323453A
:0600F3008223900053730C
:00000001FF
