:10097600E4FDFCC3ED9FEC9E5015E4FBFA0BBB00B7
:0F098600010AEB647B4A70F50DBD00010C80E4A3
:01099500223F
:10099600E4FDFCC3ED9FEC9E5015E4FBFA0BBB0097
:0F09A600010AEB64024A70F50DBD00010C80E4FC
:0109B500221F
:1009300054696D65002562753A2562753A256275C0
:10094000200044617465002562752F2562752F258E
:0409500062752000AC
:100372001209DED2B112095475A885D288D28A2018
:10038200B40D7F027E00120976754701752201E5E0
:100392002270030205B3E547640170528536487F37
:1003A20064FE120976854836C3E53664809480502F
:1003B20003753617D3E536648094974003E4F53627
:1003C200AD367F0212088F7F86120822E53675F05D
:1003D2000A12064E2430FF120765E5361207597FCE
:1003E200881208227F3A1207657F8702059EE54739
:1003F200640270528546487F64FE1209768548463B
:10040200C3E54664809480500375463BD3E5466459
:100412008094BB4003E4F546AD467F0112088F7F0E
:1004220089120822E54675F00A12064E2430FF12A0
:100432000765E5461207597F8B1208227F3A120799
:10044200657F8A02059EE547640370488535487FCB
:1004520064FE120976854835C3E535648094805080
:100462000375353BD3E535648094BB4003E4F53531
:10047200AD35E4FF12088F7F8C120822E53575F046
:100482000A12064E2430FF120765E5351207597F1E
:100492008D02059EE547640470528532487F64FEF2
:1004A200120976854832C3E5326480948050037520
:1004B200321FD3E5326480949F4003E4F532AD32BB
:1004C2007F0412088F7FC6120822E53275F00A12E5
:1004D200064E2430FF120765E5321207597FC81213
:1004E20008227F2F1207657FC702059EE547640534
:1004F20070518533487F64FE120976854833C3E51F
:100502003364809480500375330CD3E53364809454
:100512008C4003E4F533AD337F0512088F7FC91297
:100522000822E53375F00A12064E2430FF120765E1
:10053200E5331207597FCB1208227F2F1207657FFE
:10054200CA8059E547640670478534487F64FE12C5
:100552000976854834C3E534648094805003753449
:1005620063D3E534648094E34003E4F534AD347F2F
:100572000612088F7FCC120822E53475F00A1206A3
:100582004E2430FF120765E5341207597FCD800CE7
:10059200E4F5227F907E011209767F011208223053
:1005A200B4030203917F027E00120976054702031B
:1005B200917F021207108F367F011207108F46E4D7
:1005C200FF1207108F357F801208227BFF7A09798C
:1005D2003012090B7F86120822750BFF750C097504
:1005E2000D3585360E85460F8535107B007A0079EC
:1005F200231200727B007A00792312090B7F041206
:1006020007108F327F051207108F337F06120710F3
:100612008F347FC01208227BFF7A09794212090BBC
:100622007FC6120822750BFF750C09750D478532BE
:100632000E85330F8534107B007A007937120072F1
:0C0642007B007A00793712090B0203815B
:030003000207A051
:1007A000C0E0C0F0C083C082C0D075D000C000C01F
:1007B00001C002C003C004C005C006C00705487FD1
:1007C000E87E03120996D007D006D005D004D003E6
:1007D000D002D001D000D0D0D082D083D0F0D0E0F1
:0107E00032E6
:030013000207E100
:1007E100C0E0C0F0C083C082C0D075D000C000C0DE
:1007F10001C002C003C004C005C006C00715487F80
:10080100E87E03120996D007D006D005D004D003A4
:10081100D002D001D000D0D0D082D083D0F0D0E0AF
:0108210032A4
:10088F008F088D09E50975F00A84C454F0FFE50956
:10089F0075F00A84E5F04FF5091209B67FD01208FA
:0E08AF00BDAF081208BDAF091208BD0209C98D
:020710008F0850
:100712001209B67FD01208BDAF081208BD1209B681
:100722007FD11208BDC20012085D7509008F0A123E
:1007320009C9E509C4F854F0C868FEE50AC4540FB3
:1007420048FF7C007D0A120689E50A540F2FF50A3C
:06075200EC3EF509AF0AC0
:01075800227E
:1009B600D2B11209DEC2B11209E0C2B07F027E00D6
:0309C6000209E43F
:1009C900C2B11209DED2B11209E0C2B07F027E00C3
:0309D9000209E42C
:0208BD008F0B9F
:1008BF00E4F50CE50B30E703D38001C31209DCC26A
:1008CF00B0E50B25E0F50B050CE50CC3940840E3F0
:0408DF00D2B0C2B021
:0108E30022F2
:10085D00E4F50CD2B1F50BD2B0E50C25E0F50CA208
:10086D00B1E433420CC2B01209E0050BE50BC394A1
:10087D000840E4300003C38001D31209DCC2B0AFDD
:01088D000C5E
:01088E002247
:100822008F08E50854F0F5A0C2A0C2A1D2A27F149D
:100832007E001209E4C2A27F967E001209E4E50856
:10084200C454F0F5A0C2A0C2A1D2A27F147E0012AD
:0B08520009E4C2A27F967E000209E4C8
:10095400E4F5A07F01FE1209767F031208227F02CC
:100964001208227F281208227F011208227F0E0219
:02097400082257
:0C07590075F00A12064EAFF0EF2430FFDE
:100765008F0BE50B54F0F5A0D2A0C2A1D2A27F0A4F
:100775007E001209E4C2A27F647E001209E4E50B43
:10078500C454F0F5A0D2A0C2A1D2A27F0A7E001265
:0B07950009E4C2A27F647E000209E4B8
:10090B008B088A09890AAB08AA09A90A1206706022
:10091B0013050AE50A7002050914F9120670FF1295
:05092B00076580E222D7
:0809DC0092B1D2B07F027E004F
:0B09E400EF1FAC0670011E4C70F622E5
:03000000020006F5
:0C000600787FE4F6D8FD75814802037293
:10064E00C2D530F707B2D563F0FF05F030E70CB234
:10065E00D5F4048463F0FF05F080018430D502F4F4
:02066E00042264
:10067000BB010689828A83E0225002E722BBFE0288
:09068000E32289828A83E49322BB
:10068900EF8DF0A4A8F0CF8CF0A428CE8DF0A42E85
:02069900FE223F
:10001600E517240BF8E60517227808300702780B57
:10002600E475F0011206DA0206702000EB7F2ED28C
:10003600008018EF540F2490D43440D4FF30040BC2
:10004600EF24BFB41A0050032461FFE518600215BF
:1000560018051BE51B7002051A30070D7808E475B4
:10006600F0011206DAEF0206C80208E47403D207AA
:100076008003E4C207F5178B088A09890AE4F51894
:10008600F51AF51BE51860077F2012005180F575FB
:1000960019FFC201C200C202C203C205C206C208DB
:1000A60012001FFF700D3007057F00120062AF1BA4
:1000B600AE1A22B4255FC2D5C20412001FFF24D097
:1000C600B40A00501A75F00A781830D50508B6FF3C
:1000D6000106C6A426F620D5047002D20380D924D0
:1000E600CFB41A00EF5004C2E5D204020262D20174
:1000F60080C6D20080C0D20280BCD2D580BAD205DA
:1001060080B47F201200512002077401B518004008
:10011600F1120016FF12005102008AD208D20680A0
:1001260095120016FB120016FA120016F94A4B70C9
:100136000679337A037BFF20022EE518602A7E00BB
:100146008E8275830012069B60060EEE651970F0AE
:10015600C2D5EBC0E0EAC0E0E9C0E0EE1202A9D0E9
:10016600E0F9D0E0FAD0E0FB120670FF60AAEBC01F
:10017600E0EAC0E0E9C0E0120051D0E02401F9D085
:10018600E03400FAD0E0FBE5190460DCD519D9802B
:10019600877BFF7A0279A5D202809C79108002794A
:1001A60008C206C2088008D2D5790A8004790AC234
:1001B600D5E519047002F519E4FAFDFEFF120016E2
:1001C600FC7B08200113120016FD7B1030000A127A
:1001D6000016FE120016FF7B20EC3382D592D55016
:1001E60013C3E43000069FFFE49EFEE42001039D56
:1001F600FDE49CFCE4CBF8C201EC700CCFCECDCC78
:10020600E824F8F870F38017C3EF33FFEE33FEED02
:1002160033FDEC33FCEB33FB994002FB0FD8E9EBE3
:10022600300105F8D0E0C448B201C0E00AEC4D4EFA
:100236004F78207B0070C2EAB5190040BCC0E012BE
:1002460002ABD0F0D0E0200104C4C0E0C4B201C0CB
:10025600F012003AD0F0D5F0EB02008A1206EA015D
:10026600275301A15800F84C00F44201A54F01ADF7
:0F0276004401AD49010D4301B35501974601976E
:100285004501974703535000FC2D01002E01232BF8
:10029500010423012120033C2A00BC480000011B66
:1002A5003F3F3F00790AA2D5200314300509B91054
:1002B500020404B9080104A2D52006025001042055
:1002C50002689202B518005034C0E07F203003194F
:1002D5007F30A20272067205500F120302C202C2DB
:1002E50006C205C2087F30800F300503E9C0E01261
:1002F5000051300503D0E0F9D0E0B518CC30051732
:100305007F30B9100C1200517F583004077F788078
:1003150003B908031200513002057F2D0200517FF9
:10032500202008F87F2B2006F322920280CF286E2A
:10033500756C6C2900D2011200163001F8C20178E3
:100345001830D50108F60200BC2D5043495812005B
:10035500162403B405004001E490034E93120042B5
:0D036500743A120042D2037518040201A17F
:10069B00BB010CE58229F582E5833AF583E0225014
:1006AB0006E92582F8E622BBFE06E92582F8E2225E
:0D06BB00E58229F582E5833AF583E4932278
:1006C800BB010689828A83F0225002F722BBFE0111
:0206D800F3220B
:1006DA00FAE6FB0808E6F925F0F618E6CA3AF62221
:1006EA00D083D082F8E4937012740193700DA3A39F
:1006FA0093F8740193F5828883E4737402936860B3
:06070A00EFA3A3A380DFB2
:1008E400EFB40A07740D1208EF740A309811A8992E
:1008F400B8130CC2983098FDA899C298B811F63074
:0709040099FDC299F599224B
:00000001FF
