:0F02CB000028000000000000CDEF12AA834F5062
:10023A00040CCDEF12AA081840226688400000007C
:0A024A000810000000000000000092
:04025500D294E4FF5C
:10025900AD071FED600BE4FEEEC3942350F20E8050
:01026900F79D
:01026A002271
:1001BC00E4FDFCC3ED9FEC9E50070DBD00010C80CF
:1001CC00F2E4FCFDC3ED9FEC9E50070DBD00010C4D
:0201DC0080F2AF
:0101DE0022FE
:0E02DA00D2B57F28120259C2B4C294C2962235
:0F029E00759850758921758DFD758BFDD28E2257
:0F02AD00758CF5758A33D2A9C28DD28CD2AF224F
:10027D00C2A9EF540125E02408F8E4F608F6D2A946
:01028D00224E
:0F028E00C2A9EF25E02408F8E6FE08E6FFD2A992
:01029D00223E
:080003008F993099FDC299228A
:0601DF008B208A21892219
:1001E500E4FEAB20AA21A9228E827583001201416B
:0901F500FF60061200030E80E910
:0101FE0022DE
:10019700C2960000E4FEEF30E706D2C3D297800490
:1001A700C2C3C297D2960000EF25E0FFC2960000B7
:0401B7000EBE08E28E
:0101BB002221
:1001FF00E4FFD2C3D297C2960000FEEF25E0FFD2F4
:0F020F009600003097010FC29600000EBE08EC5B
:01021E0022BD
:0F02BC001202557F50120197C2947F020202591D
:10026B0012025574504401FF120197C2947F02028F
:02027B00025926
:10021F00C2B4120255E4FDED9002CB93FF12019789
:0B022F000DBD0FF3C2947F1E020259A8
:100112001202BCD2B47F01120259E4FD740C2DF814
:10012200E6FF1201970DBD04F3E4FD74182DF8E605
:0F013200FF1201970DBD05F3C2B47F0D020259F4
:10009A0012026BD2B47F0112027D30C2FD7F0112BF
:1000AA00028ED3EF94C8EE94004005C2B47F0022BA
:1000BA00E4FD30C20D1201FF74102DF8A6070DBD24
:0E00CA0004F030C2051201FF80F8C2B47F01BD
:0100D8002205
:03000B0002016E81
:10016E00C0E0C0D0C2AF74F5258CF58C7433258AEF
:10017E00F58A0509E50970020508050BE50B700205
:09018E00050AD2AFD0D0D0E03256
:1000D9001202DA12029E1202ADC2C1C2C07F207E94
:1000E9004E1201BCD2C1D2C012021F7FF47E01128E
:1000F90001BC120112C2C07F887E131201BCD2C09A
:090109007F107E271201BC80E981
:0300000002000EED
:0C000E00787FE4F6D8FD758122020055D1
:10014100BB010CE58229F582E5833AF583E0225073
:1001510006E92582F8E622BBFE06E92582F8E222BD
:0D016100E58229F582E5833AF583E49322D7
:10001A000200D9E493A3F8E493A34003F68001F223
:10002A0008DFF48029E493A3F85407240CC8C333E7
:10003A00C4540F4420C8834004F456800146F6DFB6
:10004A00E4800B010204081020408090023AE47E0A
:10005A00019360BCA3FF543F30E509541FFEE493AB
:10006A00A360010ECF54C025E060A840B8E493A372
:10007A00FAE493A3F8E493A3C8C582C8CAC583CA9D
:10008A00F0A3C8C582C8CAC583CADFE9DEE780BE55
:0102540000A9
:00000001FF
