:040137007F017E00C6
:10013B00EF1FAA0670011E4A600BE4FDEDC3940D80
:05014B0050EE0D80F7ED
:01015000228C
:1000FD00D288D2A8D2AFD2B2AE0BEF6E60FAAF06F5
:10010D00BF0C02B290BF1802B291BF5E02B292BF95
:10011D000802B293BF1C02B294BF5A02B295BF42FD
:0A012D0002B296BF52D2B29780CE04
:03000300020006F2
:10000600C0E0C083C082C0D075D000C000C002C0AE
:0700160004C005C006C0078D
:10001D007508007F467E0012013B30B2030200E8F6
:10002D009003E820B218D3E5829400E58394004054
:10003D000D120137E582158270E9158380E520B236
:10004D00030200E89001F430B218D3E5829400E584
:10005D00839400400D120137E582158270E91583F6
:10006D0080E5E4FC750D0090003C20B218D3E582CC
:10007D009400E5839400400D120137E582158270DE
:10008D00E9158380E59001F430B223D3E582940025
:10009D00E583940040181201370508E5821582703A
:1000AD00021583E508D3941E40DED2A8802D740975
:1000BD002CF8C000E6C313D000F6E508C394084041
:1000CD000874092CF8E64480F6750800050DE50D59
:0B00DD00C3940840920CEC640470898E
:1000E800D007D006D005D004D002D000D0D0D0821E
:0500F800D083D0E032CE
:03000000020151A9
:0C015100787FE4F6D8FD75810D0200FDFA
:00000001FF
