:10000000020C2D120F127F647E00120FB212138D9C
:100010001210457F08120FD28F22E522642A601544
:10002000E4FDFF1211277BFF7A0979E1120FAB750E
:100030000B06750C06E522B42A1FE4FDFF121127FA
:100040007BFF7A0979F21213487B007A0079727D7E
:1000500008E4FF120F55120FAE1213B51203FB8FF7
:1000600010120AAE20B60AD286E4F50EF50F120C75
:10007000B9E50B6003020122E50C600302012220B6
:10008000B603020122121335EF700302011F7B0039
:100090007A00796D1211A6EF700302011AD286E47C
:1000A000F521E521C394055071744E2521F9746D35
:1000B0002521F8E6FF67601274532521F8EF66608A
:1000C0000974582521F8EF6670360521E521B4053D
:1000D000D11213B5E4FD7F031211277BFF7A0A7951
:1000E00003121348C287120FAED2871211237BFF6F
:1000F0007A0A790E1213487FA07E0F120FB280A2E7
:100100001213B5E4FD7F031211277BFF7A0A7918D9
:100110001213487FB87E0B120FB2C2861213B512AB
:100120000ECCE50A6401707F20B6087F0C1211E145
:100130001212A712107CE510606D64236069121121
:10014000FBE50D640870607F0C1211E11213B5E439
:10015000FD7F021211277BFF7A09796C1213487F09
:10016000F47E01120FB2E4F521E521C39408503466
:1001700074722521F8E6FF745D2521F8E6F9B507CC
:10018000170521E521B408E1750801C2877FE87EE3
:1001900003120FB2D287800C74722521F8E66960D1
:1001A000C8750802120B76E50A6402600302023485
:1001B00020B6087F0C1211E11212A712107CE51074
:1001C00060726423606E1211FBE50D6408703F12CB
:1001D0000F96E4F521E521C394085032747225216D
:1001E000F8E6FF745D2521F8E6B5070C0521E52149
:1001F000B40805750803801374722521F8E6FF74AE
:100200005D2521F8E66F60CD75080412139BE508A3
:1002100064036006E5086404701A1213B5E4FD7FF8
:10022000031211277A0A79231211D3750A03E4F510
:100230001012139BE50A6403704A12107CE51060EB
:10024000436423603F1211FBE50D64087036120F02
:1002500096E4F521745D2521F8E6FF74652521F803
:10026000A6070521E521B408EB1213B5E4FDFF1242
:1002700011277A0A792F1211D3E4F50D750A04F5C6
:100280001012139BE50A6404600302038612107CBB
:10029000E5107003020386642370030203861211C3
:1002A000FBE50D64086003020386120F96E4F52156
:1002B000E521C39408506274652521F8E6FF745D5A
:1002C0002521F8E6B5070C0521E521B408057509D7
:1002D00001804674652521F8E6FF745D2521F8E666
:1002E0006F60CD1213B5E4FDFF1211277BFF7A0A70
:1002F000793F1211207A0A794C1213487FA07E0FA1
:10030000120FB2E4FDFF1211277BFF7A0A795E1209
:1003100011207A0A796F12129DE50864037042E594
:10032000096401703C1213B5E47F031211167A0AB6
:100330007980120FABE4F521745D2521F8E6FF7496
:10034000722521F8A6070521E521B408EB12114713
:100350007D2A7F081210E47F647E00120FB2121211
:10036000A7E5086404701FE509640170191213B54C
:10037000E4FDFF1211277BFF7A0A798F1211207A90
:100380000A795E12129DE50A6405600302005C12A0
:10039000107CE510700302005C6423700302005CB3
:1003A0001211FBE50D6408600302005C120F96E475
:1003B000F521745D2521F8E6FF74722521F8A60762
:1003C0000521E521B408EB1211477F647E00120F6E
:1003D000B27D2A7F081210E47F647E00120FB2E41F
:1003E000FDFF1211277BFF7A0979B11211207A0AD9
:1003F000799F120FAB1212A702005CE4F9C2B02081
:10040000B3107F50FE120FB220B3077931E4F50E1E
:10041000F50FA2B330B301B34012E50F94E8E50E37
:1004200094035008050FE50F7002050E20B4117FEC
:10043000507E00120FB220B4077934E4F50EF50FA8
:10044000A2B430B401B34012E50F94E8E50E940372
:100450005008050FE50F7002050E20B5117F507E84
:1004600000120FB220B5077937E4F50EF50FA2B5EB
:1004700030B501B34012E50F94E8E50E940350083F
:10048000050FE50F7002050ED2B0C2B120B3117F87
:10049000507E00120FB220B3077932E4F50EF50F4B
:1004A000A2B330B301B34012E50F94E8E50E940314
:1004B0005008050FE50F7002050E20B4117F507E25
:1004C00000120FB220B4077935E4F50EF50FA2B48F
:1004D00030B401B34012E50F94E8E50E94035008E0
:1004E000050FE50F7002050E20B5117F507E00123A
:1004F0000FB220B5077938E4F50EF50FA2B530B587
:1005000001B34012E50F94E8E50E94035008050F7F
:10051000E50F7002050E20B6117F507E00120FB25B
:1005200020B6077930E4F50EF50FA2B630B601B368
:100530004012E50F94E8E50E94035008050FE50F0F
:100540007002050ED2B1C2B220B3117F507E0012EC
:100550000FB220B3077933E4F50EF50FA2B330B331
:1005600001B34012E50F94E8E50E94035008050F1F
:10057000E50F7002050E20B4117F507E00120FB2FD
:1005800020B4077936E4F50EF50FA2B430B401B308
:100590004012E50F94E8E50E94035008050FE50FAF
:1005A0007002050E20B5117F507E00120FB220B5EB
:1005B000077939E4F50EF50FA2B530B501B3401255
:1005C000E50F94E8E50E94035008050FE50F70025F
:1005D000050E20B6117F507E00120FB220B60779AB
:1005E00023E4F50EF50FA2B630B601B34012E50FC5
:1005F00094E8E50E94035008050FE50F7002050E10
:10060000D2B2E50F64E87004E50E64037024E50BD4
:100610007004E50C601AE50AD39400500CC2867F82
:100620000C1211E11212A78007D286E4F50EF50F25
:10063000C286C3E50F94E8E50E94035002D286AF5C
:100640000122E709F608DFFA8046E709F208DFFA37
:10065000803E88828C83E709F0A3DFFA8032E309C9
:10066000F608DFFA8078E309F208DFFA8070888202
:100670008C83E309F0A3DFFA806489828A83E0A394
:10068000F608DFFA805889828A83E0A3F208DFFA4D
:10069000804C80D280FA80C680D4806980F280331A
:1006A000801080A680EA809A80A880DA80E280CAE2
:1006B000803389828A83ECFAE493A3C8C582C8CCCC
:1006C000C583CCF0A3C8C582C8CCC583CCDFE9DE26
:1006D000E7800D89828A83E493A3F608DFF9ECFAB8
:1006E000A9F0EDFB2289828A83ECFAE0A3C8C582D7
:1006F000C8CCC583CCF0A3C8C582C8CCC583CCDF29
:10070000EADEE880DB89828A83E493A3F208DFF9DA
:1007100080CC88F0EF60010E4E60C388F0ED2402BB
:10072000B4040050B9F582EB2402B4040050AF23A6
:100730002345822390069273BB010689828A83E057
:10074000225002E722BBFE02E32289828A83E493DD
:1007500022BB010CE58229F582E5833AF583E0228C
:100760005006E92582F8E622BBFE06E92582F8E27A
:1007700022E58229F582E5833AF583E49322BB01E1
:100780000689828A83F0225002F722BBFE01F322FF
:10079000F8BB010DE58229F582E5833AF583E8F09F
:1007A000225006E92582C8F622BBFE05E92582C84B
:1007B000F222BB010A89828A83F0E5F0A3F022507D
:1007C00006F709A7F01922BBFE06F3E5F009F319B5
:1007D000227542007543007544007545007546005A
:1007E0007547007A0079007B007F0C8F3D8B3E8A35
:1007F0003F8940754802E4F549F54AE53D24F46037
:100800000C24FE700E754912754A108006754977E2
:10081000754A30E5494480FD7F0212100E7D807FCD
:10082000041212CD7D807F0A121321E4FD7F011294
:10083000100EE4F54CE54CC395415019AB3EAA3F70
:10084000A940854C82758300120751FD7F09121063
:100850000E054C80E0AD3D7F0112100EE53DB40C5D
:10086000077D807F0D121321754CFF7F04120E2D22
:100870008F4B154CE54C6009E54B20E004554A6070
:10088000EA7D807F0D1212CDE54C70030209417F95
:1008900006120E2DEF541B600302093EF548E54B8E
:1008A000554930E003754801E53D640C60030209D9
:1008B000417F0A120E2D8F4B7F0C120E2DEF540725
:1008C000FD6021E54B24FFFFE434FFFEEF7803C316
:1008D00033CE33CED8F97C002DFFEC3EAB45AA4693
:1008E000A947800FE54B75F008A4FFAB45AA46A9C0
:1008F00047E5F08FF01207B2E54B7003754B01E549
:100900004BD394104003754B10E4F54CE54CC39564
:100910004B50197F09120E2DAB42AA43A944854CB6
:1009200082758300EF120790054C80E0AB42AA432A
:10093000A944854C82758300E412079080037548B2
:1009400002AF48222000437561204461204D6F00B2
:10095000536169204D6174204B686175004E686178
:1009600070207361692033206C616E005761697477
:100970002E2E2E007365636F6E6400446573696785
:100980006E205475616E20416E680050686F6E6510
:100990003A30393634323634333235004D6F204BED
:1009A000686F6100446F69204D6174204B68617508
:1009B000005468696574204C6170204D4B204D6F68
:1009C00069004E686170204D6174204B686175004C
:1009D0004E686170204D6174204B686175204375CD
:1009E00000436875612054616F204D4B2021212107
:1009F00020004D4B204461205468696574204C618F
:100A000070210054686520686F70206C6500437524
:100A100061204461206D6F00536169206D61207415
:100A20006865004E686170204D4B204D6F69004E27
:100A3000686170204C6169204D4B204D6F69004DFD
:100A40006174204B686175204D6F69004B686F6E53
:100A500067205472756E67204B686F702100446F79
:100A600069204D6B20546861742042616921002027
:100A70002020202020202020202020202020200096
:100A80005468616E6820436F6E67202121210053F6
:100A90006169204D6174204B686175204375005475
:100AA00068616E6820436F6E672E2E2E2100E50B65
:100AB000701AE50C7016FD7F011211277BFF7A0971
:100AC000797B1211207A09798B121348E50B6401A6
:100AD0007016E50C7012FD7F051211277BFF7A0955
:100AE000799C121120121178E50B700EE50C64014F
:100AF00070087F02121116121178E50B6406701C43
:100B0000E50C64067016750B05750C05750A05FD78
:100B1000FF1211277BFF7A0979B18056E50B64013A
:100B20007025E50C7021E51064237049750B05757F
:100B30000C05750A011213B5E4FD7F021211277B23
:100B4000FF7A0979C2802BE50B702AE50C640170ED
:100B50002430B621E5106423701B750B07750C0754
:100B6000750A021213B5E4FDFF1211277BFF7A0903
:100B700079D01211D522E508B401171213B5E4FD9E
:100B80007F031211277A097946120FA9E4F5111291
:100B900012A7E50864026003020C2C1213B5E4FDF1
:100BA0007F021211277BFF7A0979501213487FE8E0
:100BB0007E03120FB205111212A7750B01E5116425
:100BC000037069FDFF1211277A09795D12111E7AEF
:100BD00009796C12134875233C7D017F0712112798
:100BE000E52375F00A842430FF12119EE52375F089
:100BF0000A84E5F02430FF12119E7D017F0A121154
:100C0000277BFF7A0979741213487FE87E03120F5D
:100C1000B2E523D3940050081212A7E4F51180091D
:100C20001523E523D3940050B01212A722787FE455
:100C3000F6D8FD758179020C74020003E493A3F8E1
:100C4000E493A34003F68001F208DFF48029E493E3
:100C5000A3F85407240CC8C333C4540F4420C883DA
:100C60004004F456800146F6DFE4800B01020408DC
:100C700010204080901281E47E019360BCA3FF5459
:100C80003F30E509541FFEE493A360010ECF54C02A
:100C900025E060A840B8E493A3FAE493A3F8E493B2
:100CA000A3C8C582C8CAC583CAF0A3C8C582C8CABA
:100CB000C583CADFE9DEE780BE20B676C3E52494AB
:100CC00032E52394007F0050027F017E0020B602AF
:100CD0007E01EF5E60110524E524700205237F325A
:100CE0007E00120FB280D57F327E00120FB2E50A6D
:100CF0007045C3E5249432E52394005023050BE5A9
:100D00000BB40207E4F50BF50CF50AE50BD39400E0
:100D1000400EE50CD394004007E4F50BF50CF50A02
:100D2000E524643245237007F50B750C01F50A02C2
:100D300013B5E4F523F524227B007A0079008B2992
:100D40008A2A892B8D2C7D047F051212CD7D807F10
:100D50000A121321E4F530E530C3952C501BAB2962
:100D6000052BE52BAA2A7002052A14F9120738FD73
:100D70007F0912100E053080DE7D037F0112100EF8
:100D80007530FF7F05120E2D1530E5306004EF3011
:100D9000E2F17F22120E2DAB2DAA2EA92FEF120702
:100DA0007E7F21120E2DAB2DAA2EA92F900001EFD0
:100DB0000207908B378A388939E4F53AFD7F0D12A6
:100DC000100EAB37AA38A939749312077EAB37AA35
:100DD00038A93990000174201207907D087F08120D
:100DE00012CD7541028537428538438539447545B2
:100DF0000075460075473BAB37AA38A9397F0C12FE
:100E000007EBEF7027FEAB37AA38A9398E827583BE
:100E100000120751623A0EBE04ECAB37AA38A9396A
:100E2000900004120751653A60027F0222E4FDFC43
:100E3000C293C294EF25E0FF7E00EF547E4480FF12
:100E40007B087A00EFC330E701D39292D293EF256B
:100E5000E0FFEE33FEC293EB1B70011AEB4A70E425
:100E60007A007B08D293ED25E0FDEC33FCA291E4FF
:100E7000334205C293EB1B70011AEB4A70E6D29421
:100E8000D293AF05228B338A348935AC077D077F37
:100E90000D12100EAB33AA34A935EC12077E754142
:100EA00001853342853443853544754500754600D8
:100EB000754736AB33AA34A9357F0C1207EBEF70B8
:100EC00008E5376410453660027F0222752550E43C
:100ED000F526F52D752E00752F27FB7A0079257DD7
:100EE00002120D3E7D807F081212CD7541047542BD
:100EF0000075430075442575450075460075472308
:100F00007B007A0079257F0C1207EB7D087F0802B1
:100F100012CDE4FF1212657FD07E071213A9C280A2
:100F20007F031212E27FF47E011213A91212E57FF1
:100F3000647E001213A91212E57F021212651212CA
:100F4000E57F2812136D7F0C12136D7F0612136D4F
:100F50007F0102136D8F238D248B258A268927E438
:100F6000F528E524601EAF230523120FD2AB25AA76
:100F700026A927AE2805288E82758300EF120790D8
:100F8000152480DEAB25AA26A92705288528827589
:100F90008300E40207907F0C1211E11213B5E4FD07
:100FA0007F021211277A09796C7BFF1213487FD0D8
:100FB0007E07E4FDFCC3ED9FEC9E5015E4FBFA0BAD
:100FC000BB00010AEB647C4A70F50DBD00010C808A
:100FD000E422AA07D200121222EF24FF9200AF02ED
:100FE00012124812122AEF24FF92001212F77FA168
:100FF00012124812122AEF24FF92001210B2AB070D
:1010000012122AEF24FF920012130CAF0322C29394
:10101000C294EF25E0547EFF7E08EFC330E701D392
:101020009292D293EF25E0FFC293DEEE7E08EDC3ED
:1010300030E701D39292D293ED25E0FDC293DEEE2C
:10104000D294D29322D294D29012135B7D8D7F2AB8
:1010500012100E7D3E7F2B12100E7D1E7F2D121062
:101060000EE4FD7F2C12100E7D407F1512100E7DB8
:101070003D7F1112100E1213C102137FE50DD394A0
:1010800000402EE51064237028150D745D250DF8C1
:10109000766E7F327E00120FB2E50D2404FF7D01D3
:1010A0001211277BFF7A0979441213487F1112111C
:1010B000E122E4FDFCD2A1D2A07F787E001212C111
:1010C000A2A1E433FB7F787E001212C1C2A0EDBB67
:1010D000010825E0FD430501800325E0FD0CBC0867
:1010E000D4AF0522AA05A907D200121222EF24FFCD
:1010F0009200AF0112124812122AEF24FF9200AFA1
:101100000212124812122AEF24FF920012130C7FCF
:10111000647E00020FB2FD1211277A0979A47BFFC9
:101120001213487D01E4FFED7006EF2480FC80047B
:10113000EF24C0FC7FE87E031213A9AF0412136DE5
:101140007F327E000213A97B007A00795DE4FF8F75
:10115000238B248A258926AB24AA25A926120738A1
:10116000FD6014AF2305231210E474012526F52633
:10117000E43525F52580E0227F2A12119E7D017F2E
:10118000021211277F7F12119E7D017F0D12112700
:101190007F7E12119E7D017F0F1211277F23D28047
:1011A00012136DC280228B238A2489257B007A004A
:1011B0007927120DB38F26A825AC24AD237B007AA6
:1011C0000079277E007F05120712E5267F00700256
:1011D0007F01227BFF1213487D017F041211277FBC
:1011E0000FAE07C280EEC4540FFF121265D281C247
:1011F00081AF06121265D281C28122E50DC3940827
:10120000501FAF1012119E745D250DF8A610050D2C
:101210007F327E00120FB27F101211E17F2A12116D
:101220009E221212F77FA0121248E4FDD2A1D2A092
:101230007F02FE1212C1A2A1E433FD7F021212B698
:101240007F01BD01027F0022AD07E4FBEDA803088A
:101250008002C333D8FC3392A1D2A07F041212B60D
:101260000BBB08E822EF139282EFC313139283EFB4
:101270001313543F139284EF131313541F139285C7
:1012800022010D00011100054E40AC537EC10553F3
:1012900057DB5D5988055814A9DF593B00121348E4
:1012A0007FB87E0B120FB212139BE4F50BF50CF511
:1012B0000AF5080213B57E001212C1C2A07F047E97
:1012C00000EF4E6007EF1F70F81E80F5228D4DA9CC
:1012D00007E4FE120E2DAE07AF01E54DF45EFD02F0
:1012E000100E121265D2817F037E001213A9C281F3
:1012F0007F327E000213A9D2A1D2A01212BDC2A1D8
:101300001212BDC2A07F047E000212C1C2A1D2A0EF
:101310001212BDD2A11212BDC2A07F047E00021221
:10132000C18D4DA907E4FE120E2DAE07AF01E54DAC
:101330004EFD02100E7B007A0079237F52120E853B
:10134000EF7F0070027F0122120738FF600C12113C
:101350009E740129F9E43AFA80EE22D29000C290FC
:1013600000D290007D0F7F0112100E0022AD07ED1C
:10137000C4540FFF1212E2AF051212650212E57F8C
:1013800014120E2D8F237D037F14021321D2A0127D
:1013900012BDD2A17F047E000212C1E4F50D7F08C8
:1013A000785D746EF608DFFC22EF4E6007EF1F7069
:1013B000F81E80F5227F0112136D7F0A7E00021352
:0813C000A97D037F140212CD88
:00000001FF
