:100EFF000C38C0F9A4B0999282F88090FF00014796
:070F0F000001480001490048
:060F1700D2907F0F7E0066
:0C0F1D00EF4E6007EF1F70F81E80F522F9
:0A0F3B00D291120F17C291C290224A
:0A0F4500C291120F17D291C2902240
:100E8600E4FEEF30E703D38001C39291D2900000D5
:100E9600C290EF25E0FF0EBE08E8D2900000C29097
:010EA6002229
:100EE400E4FED290EF25E0FFA291E4334207C290E2
:0A0EF4000EBE08EED2900000C2907E
:010EFE0022D1
:100DFF00AD21E4FF120E26AD347F01120E26AD4653
:100E0F007F02120E26AD457F03120E26AD357F04ED
:070E1F00120E26AD367F051F
:100E2600AC07120F3B7FD0120E86AF04120E86AFB0
:070E360005120E86020F45B4
:020E6400AD07D8
:100E6600120F3B7FD0120E86AF05120E86120F3B75
:0F0E76007FD1120E86120EE4AD07120F45AF05A5
:010E8500224A
:100F2900C2AF758902758A06758C06D2A9D2AFD26D
:020F39008C2208
:03000B00020D657E
:100D6500C0E0C0D075D000C000C28C0522E5226469
:100D750003703DE544D3940750138544A07424259E
:100D850044F8E62438F8E6F580D2A48014E5442436
:100D9500F8F5A074242544F8E62438F8E6F580D261
:100DA500A50544E544C3941040037544007522002D
:090DB500D28CD000D0D0D0E03285
:040EC7007F057E0025
:100ECB00EF4E60147DE87C03ED1D70011CED4C7042
:080EDB00F7EF1F70EB1E80E829
:010EE30022EC
:0A0F4F00120DFFAD377F06020E26DB
:100DBE00E547703CE548B40106120F4FE4F548E4F0
:100DCE00FF120E648F217F01120E648F347F021288
:100DDE000E648F467F03120E648F457F04120E64DD
:100DEE008F357F05120E648F367F06120E648F3795
:010DFE0022D2
:100C7600E5465430C4540FFF700575240A80028F70
:100C860024E546540FF525E5345470C4540FF52673
:100C9600E534540FF527E5215470C4540FF528E5C3
:100CA60021540FF529752A0AE5455407F52BE53534
:100CB6005470C4540FFF7005752C0A80028F2CE502
:100CC60035540FF52DE5365430C4540FFF700575B5
:100CD6002E0A80028F2EE536540FF52F753002E46A
:100CE600F531E5375470C4540FF532E537540FF536
:010CF60033CA
:010CF70022DA
:100E3D00E4F521F534F54675450475350875360626
:100E4D00753711752310AD237F07120E26120DFF76
:070E5D00AD377F06020E26EF
:10080000A2009205A2929200300527200024209297
:10081000177F327E00120ECB20920D20950A7F3278
:100820007E00120ECB120E3D0547E547B40803E4E7
:10083000F547209503E4F547E54714B40700400366
:10084000020AE690085175F003A4C58325F0C5831C
:10085000730208660208A60208E602092502096476
:10086000020A7A020AB0A2029201A2939202754889
:100870000175490130010D20020A0546E546B4180C
:1008800003E4F546A2049203A29492042003030217
:100890000AE6300403020AE61546E546F460030260
:1008A0000AE675461722A2029201A29392027548A7
:1008B0000175490130010D20020A0534E534B43CCC
:1008C00003E4F534A2049203A294920420030302E9
:1008D0000AE6300403020AE61534E534F460030244
:1008E0000AE675343B22A2029201A2939202754855
:1008F0000175490130010D20020A0521E521B43CB2
:1009000003E4F521A2049203A294920420030302BB
:100910000AE6300403020AE61521E521F460030229
:100920000AE6F52122A2029201A2939202754801E1
:1009300075490130010D20020A0545E545B408035B
:10094000754501A2049203A2949204200303020AB3
:10095000E6300403020AE61545E5456003020AE6AF
:1009600075450722A2029201A29392027548017571
:10097000490130017B2002780535E53664046011B9
:10098000E5366406600BE53664096005E536B40BB0
:1009900008E535B41F03753501E53664016023E5CC
:1009A000366403601DE53664056017E5366407604C
:1009B00011E5366408600BE536640A6005E536B477
:1009C0000C08E535B42003753501E536B4020EE5B3
:1009D0003754037008E535B41D03753501E536B4A9
:1009E000020EE53754036008E535B41E0375350182
:1009F000A2049203A2949204200303020AE63004A4
:100A000003020AE61535E53664046011E53664062E
:100A1000600BE53664096005E536B40B07E5357013
:100A20000375351EE53664016023E5366403601DF9
:100A3000E53664056017E53664076011E53664083D
:100A4000600BE536640A6005E536B40C07E53570E1
:100A50000375351FE536B4020DE53754037007E51D
:100A600035700375351CE5366402707AE53754033A
:100A70006074E535707075351D22A2029201A29353
:100A8000920275480175490130010D20020A0536B0
:100A9000E536B40D03753601A2049203A2949204C4
:100AA0003003432004401536E536703A75360C2283
:100AB000A2029201A2939202754801754901300188
:100AC0000D20020A0537E537B46403E4F537A204C4
:100AD0009203A294920430030D20040A1537E537DF
:070AE000B4FF037537632228
:100AE700E547B4011F309613E54675F00A84F524EF
:100AF700E54675F00A8485F0258009209606752459
:100B07000A75250AE547B4021F309613E53475F0D8
:100B17000A84F526E53475F00A8485F027800920D4
:100B2700960675260A75270AE547B4031F309613FC
:100B3700E52175F00A84F528E52175F00A8485F02A
:100B470029800920960675280A75290AE547B404FD
:100B57001A30960E752A0AE54575F00A8485F02B3A
:100B67008009209606752A0A752B0AE547B4051FE2
:100B7700309613E53575F00A84F52CE53575F00ADE
:100B87008485F02D8009209606752C0A752D0AE5B7
:100B970047B4061F309613E53675F00A84F52EE53F
:100BA7003675F00A8485F02F8009209606752E0A7F
:100BB700752F0AE54764077029309617753002F5D7
:100BC70031E53775F00A84F532E53775F00A848523
:100BD700F0332220960C75300A75310A75320A7582
:030BE700330A22AC
:100CF800E4F5807F64FE120ECB75240A120EC775C8
:100D0800250A120EC775260A120EC775270A120E73
:100D1800C775280A120EC775290A120EC7752A0A3E
:100D2800120EC7752B0A120EC7752C0A120EC7753C
:100D38002D0A120EC7752E0A120EC7752F0A120E2B
:100D4800C775300A120EC775310A120EC775320AF6
:0D0D5800120EC775330A7F057E00020ECB18
:100EA700120F29120CF8120800120DBEE549700343
:100EB700120C76E549B401EE120AE7E4F54980E63B
:03000000020BEA06
:0C0BEA00787FE4F6D8FD758149020C31DB
:100BF600020EA7E493A3F8E493A34003F68001F260
:100C060008DFF48029E493A3F85407240CC8C333FF
:100C1600C4540F4420C8834004F456800146F6DFCE
:100C2600E4800B0102040810204080900EFFE47E51
:100C3600019360BCA3FF543F30E509541FFEE493C3
:100C4600A360010ECF54C025E060A840B8E493A38A
:100C5600FAE493A3F8E493A3C8C582C8CAC583CAB5
:100C6600F0A3C8C582C8CAC583CADFE9DEE780BE6D
:010F160000DA
:00000001FF
