:0F07E8000D39C0F9A4B0999282F88090FFFE00FD
:1007D600C2AF758902758A06758C06D2A9D2AFD2C8
:0207E6008C2263
:03000B000204FEEE
:1004FE00C0E0C0D075D000C0000525E525640C70A5
:10050E002EE548D3940650078548A0D2A48008E56E
:10051E004824F9F5A0D2A574262548F8E62439F822
:10052E00E6F5800548E548C3940F4003754800E59D
:10053E0025C3940D4003752500D000D0D0D0E032F5
:1007B000EF75F00A84C454F0FEEF75F00A84E5F09A
:0307C0004EFF22C7
:0F07F800EFC4540F75F00AA4FEEF540F2EFF222A
:1007C300E4FDFCD3ED9FEC9E5008000DBD00010C31
:0207D30080F1B3
:0107D5002201
:10066100AF011207B07D017C001208157F327E00B8
:10067100E4FDFCC3ED9FEC9E5016E4FBFA000BBBBE
:1006810000010ABA03F7BBE8F40DBD00010C80E3D9
:010691002246
:0B082200D290D2910000C291C290223F
:0B082D00C291D2900000D291C2902234
:0A06C0001208227FD01206CAAF050F
:1006CA00E4FEEF30E703D38001C39291D290000099
:1006DA00C290EF25E0FF0EBE08E8D2900000C2905B
:0106EA0022ED
:10076800E4FED290EF25E0FFA291E4334207C29065
:0C0778000EBE08EED291D2900000C2909C
:010784002252
:0D081500AB071206C0AF031206CA02082D81
:02079C00AD07A7
:10079E001206C01208227FD11206CA12076812086A
:0107AE002D1D
:0107AF002227
:1006EB007F0112079C8F4B7F0212079C8F4A7F035F
:1006FB0012079C8F497F0412079C8F357F051207C9
:0B070B009C8F367F0612079C8F38225F
:10037B00E54B540FF526E54B5470C4540FF527E5A8
:10038B004A5430C4540FFF700575290A80028F2917
:10039B00E54A540FF528E5495407F52AE53775F07A
:1003AB000A8485F02BE53775F00A84FF7005752CF0
:1003BB000A80028F2CE54675F00A8485F02DE54600
:1003CB0075F00A84FF7005752E0A80028F2EE538B2
:1003DB005470C4540FF52FE538540FF530E53654EF
:1003EB000FF531E5365430C4540FFE700575320AE3
:1003FB0080028E32E535540FF533E5355430C45455
:0A040B000FFF700475340A228F34CD
:0104150022C4
:100785007D077C007F101208157F0212079CEF542D
:070795007FFD7F0202081541
:1006920020B01B12066D200010E550D394075004C1
:1006A200055080077550018002C20012066D20B30A
:0E06B2000CE4F550D2007F107E271207C32201
:0E08070030B10320B207E4FDFCFF12066A22A6
:10071600AF4B1207F8A90720B10EE9C3943B50036B
:10072600098002E4F912066120B20EE9D394004072
:0907360003198002793B120661EF
:01073F002297
:10054E00AF4A1207F8A90720B115E9C39417400462
:10055E00E4F9800109AF011207B07D02120668208E
:10056E00B215E9D3940050047917800119AF011226
:07057E0007B07D02120668C0
:010585002253
:10058600AF491207F8A90720B115E9C3940740043B
:100596007901800109AF011207B07D0312066820B8
:1005A600B215E9D3940150047907800119AF0112FD
:0705B60007B07D0312066887
:0105BD00221B
:1002C000AF351207F8A907AF361207F88F08AF3815
:1002D0001207F88F0920B15CE50864046011E50895
:1002E0006406600BE50864096005E508B40B0AE9DB
:1002F000C3941E403579018031E50864027020E521
:10030000095403700DE9C3941D40047901801B0951
:100310008018E9C3941C40047901800E09800BE920
:10032000C3941F40047901800109AF011207B07D19
:100330000412066820B243E9D394024003198030C6
:10034000E50864046011E5086406600BE5086409CB
:100350006005E508B40B04791E8015E508B4020EAB
:10036000E50954037004791D8006791C8002791F09
:0A037000AF011207B07D0412066809
:01037A002260
:10062C00AF361207F8A90720B115E9C3940C4004A2
:10063C007901800109AF011207B07D05120668200F
:10064C00B212E97004790C800119AF011207B07D68
:04065C000512066815
:010660002277
:1005BE00AF381207F8A90720B115E9C394324004E9
:1005CE00790B800109AF011207B07D061206682073
:1005DE00B215E9D3940B50047932800119AF011290
:0705EE0007B07D061206684C
:0105F50022E3
:1004A200E55060571206EB12037BE55014B40700C7
:1004B20050449004C275F003A4C58325F0C583732C
:1004C2000204D70204DC0204E10204E60204EB02A5
:1004D20004F00204F5120807801C12071680171296
:1004E200054E8012120586800D1202C08008120687
:0C04F2002C80031205BE12069280A52289
:04000300E4F55022AE
:10000E00AB07AA068D828C83EB24FFFFEA34FFFE3A
:10001E007C007D1F120740EF2582FFEE3583FE33F5
:10002E0095E08F4F8E4EF54DF54CEB64044A7004FF
:10003E007F0180027F00EB64034A70047E01800220
:10004E007E00EE4F6007E54F24FD0200DAEB6406FA
:10005E004A70047F0180027F00EB64054A70047EC3
:10006E000180027E00EE4F6006E54F24FC805DEBC2
:10007E0064084A70047F0180027F00EB64074A70B7
:10008E00047E0180027E00EE4FFFEB64094A70048D
:10009E007E0180027E00EE4F6006E54F24FB802C31
:1000AE00EB640B4A70047F0180027F00EB640A4A06
:1000BE0070047E0180027E00EE4F6006E54F24FA4A
:1000CE00800AEB640C4A7018E54F24F9F54FE54EA3
:1000DE0034FFF54EE54D34FFF54DE54C34FFF54C50
:1000EE00E54F241AF524E4354EF523E4354DF5227B
:1000FE00E4354CF521E475540BF553F552F5517F6B
:10010E001EFEFDFCAB24AA23A922A821C31207526E
:10011E00401FE52424E3F524E52334FFF523E522EF
:10012E0034FFF522E52134FFF521E475540C02026B
:10013E00B6E47F1EFEFDFCAB24AA23A922A821C390
:10014E0012075250030202BFE47F05FEFDFCAB54C2
:10015E00AA53A952A85112075270067F01C00780F8
:10016E00047F00C007E47F02FEFDFCAB54AA53A936
:10017E0052A851C312075270047E0180027E00D035
:10018E00E04EFFC007E47F08FEFDFCAB54AA53A966
:10019E0052A851C312075270047E0180027E00D015
:1001AE00E04EFFC007E47F07FEFDFCAB54AA53A947
:1001BE0052A851C312075270047E0180027E00D0F5
:1001CE00E04EFFC007E47F0AFEFDFCAB54AA53A924
:1001DE0052A851C312075270047E0180027E00D0D5
:1001EE00E04E6064E47F1DFEFDFCAB24AA23A92231
:1001FE00A821C312075270030202BFE52424E3F5BF
:10020E0024E52334FFF523E52234FFF522E52134DE
:10021E00FFF521E4FAF9F8E5542401F554EA3553D3
:10022E00F553E93552F552E83551F551E47F0DFE9F
:10023E00FDFCAB54AA53A952A851C3120752600336
:10024E0002013F7554018060E47F1EFEFDFCAB246D
:10025E00AA23A922A821C3120752700122E5242441
:10026E00E2F524E52334FFF523E52234FFF522E5FC
:10027E002134FFF521E4FAF9F8E5542401F554EAA6
:10028E003553F553E93552F552E83551F551E47FC2
:10029E000DFEFDFCAB54AA53A952A851C31207522E
:1002AE00600302013F755401F553F552F5510201F9
:0202BE003F22DD
:1005F6001207D61200031207851206EBAF36120752
:10060600F8EFFB7A00AF351207F8EFFD7C00AF0379
:100616007E0012000E85543785244612037B12068F
:06062600921204A280D331
:03000000020416E1
:0C041600787FE4F6D8FD75815402045D87
:10074000EF8DF0A4A8F0CF8CF0A428CE8DF0A42ECD
:02075000FE2287
:10075200EB9FF5F0EA9E42F0E99D42F0EC6480C81E
:0607620064809845F022BE
:100422000205F6E493A3F8E493A34003F68001F2F5
:1004320008DFF48029E493A3F85407240CC8C333DB
:10044200C4540F4420C8834004F456800146F6DFAA
:10045200E4800B01020408102040809007E8E47E4B
:10046200019360BCA3FF543F30E509541FFEE4939F
:10047200A360010ECF54C025E060A840B8E493A366
:10048200FAE493A3F8E493A3C8C582C8CAC583CA91
:10049200F0A3C8C582C8CAC583CADFE9DEE780BE49
:0107F7000001
:00000001FF
