:0F02F8000028000000000000CDEF12AA834F5035
:10026700040CCDEF12AA081840404040400000009F
:0A0277000810000000000000000065
:04028200D294E4FF2F
:10028600AD071FED600BE4FEEEC3942350F20E8023
:01029600F770
:010297002244
:1001E900E4FDFCC3ED9FEC9E50070DBD00010C80A2
:1001F900F2E4FCFDC3ED9FEC9E50070DBD00010C20
:0202090080F281
:01020B0022D0
:0E030700D2B57F28120286C2B4C294C29622DA
:0F02CB00759850758921758DFD758BFDD28E222A
:0F02DA00758CF5758A33D2A9C28DD28CD2AF2222
:1002AA00C2A9EF540125E02408F8E4F608F6D2A919
:0102BA002221
:0F02BB00C2A9EF25E02408F8E6FE08E6FFD2A965
:0102CA002211
:080003008F993099FDC299228A
:06020C008B208A218922EB
:10021200E4FEAB20AA21A9228E8275830012016E10
:09022200FF60061200030E80E9E2
:01022B0022B0
:1001C400C2960000E4FEEF30E706D2C3D297800463
:1001D400C2C3C297D2960000EF25E0FFC29600008A
:0401E4000EBE08E261
:0101E80022F4
:10022C00E4FFD2C3D297C2960000FEEF25E0FFD2C6
:0F023C009600003097010FC29600000EBE08EC2E
:01024B002290
:0F02E9001202827F501201C4C2947F0202028669
:1002980012028274504401FF1201C4C2947F020208
:0202A8000286CC
:10024C00C2B4120282E4FDED9002F893FF1201C4D5
:0B025C000DBD0FF3C2947F1E0202864E
:10013F001202E9D2B47F01120286E4FD740C2DF88D
:10014F00E6FF1201C40DBD04F3E4FD74182DF8E6AB
:0F015F00FF1201C40DBD05F3C2B47F0D0202866D
:10010000120298D2B47F011202AA30C2FD7F0112FE
:1001100002BBD3EF94C8EE94004005C2B47F002226
:10012000E4FD30C20D12022C74102DF8A6070DBD8F
:0E01300004F030C20512022C80F8C2B47F0128
:01013E00229E
:03000B0002019B54
:10019B00C0E0C0D0C2AF74F5258CF58C7433258AC2
:1001AB00F58A0509E50970020508050BE50B7002D8
:0901BB00050AD2AFD0D0D0E03229
:10009A001203071202CB1202DAC2C1C2C07F207E4B
:1000AA004E1201E9D2C1D2C012024C7FF47E011273
:1000BA0001E920A5217F327E001201E920A517124D
:1000CA00013FC2C07F887E131201E9D2C07F107E31
:1000DA00271201E980E920A7D97F327E001201E9BF
:1000EA0020A7CF120100EF60FAC2C17F887E1312E7
:0600FA0001E9D2C180ED16
:0300000002000EED
:0C000E00787FE4F6D8FD758122020055D1
:10016E00BB010CE58229F582E5833AF583E0225046
:10017E0006E92582F8E622BBFE06E92582F8E22290
:0D018E00E58229F582E5833AF583E49322AA
:10001A0002009AE493A3F8E493A34003F68001F262
:10002A0008DFF48029E493A3F85407240CC8C333E7
:10003A00C4540F4420C8834004F456800146F6DFB6
:10004A00E4800B0102040810204080900267E47EDD
:10005A00019360BCA3FF543F30E509541FFEE493AB
:10006A00A360010ECF54C025E060A840B8E493A372
:10007A00FAE493A3F8E493A3C8C582C8CAC583CA9D
:10008A00F0A3C8C582C8CAC583CADFE9DEE780BE55
:01028100007C
:00000001FF
