:1000F500E4FDFCC3ED9FEC9E5015E4FBFA0BBB0041
:0F010500010AEB647B4A70F50DBD00010C80E42C
:0101140022C8
:08014E00436F756E743A200046
:10000600D2A8D2AFD2881200757BFF7A01794E1240
:1000160000D07FC0120115E47F0AFEFDFCAB0BAADF
:100026000AA909A808C31200BF500BAF0BEF243072
:0A003600FF12013180E1E4FEFF2219
:03000300020040B8
:10004000C0E0C0D075D000C004C005C006C007AF76
:100050000BAE0AAD09AC08EF2401F50BE43EF50A3E
:10006000E43DF509E43CF508D007D006D005D004FE
:05007000D0D0D0E03209
:100075007F301201157F057E001200F57F301201D9
:10008500157F017E001200F57F301201157F3812B1
:1000950001157F011201157F0C1201157F06020162
:0100A5001545
:10011500C296C2958FA0C297D297EFD3940250048E
:0C0125007F0280027F017E001200F522A4
:10013100C296D2958FA0C297D2977F017E0002000E
:01014100F5C8
:1000D0008B0C8A0D890EAB0CAA0DA90E1200A6601E
:1000E00013050EE50E7002050D14F91200A6FF129D
:0500F000013180E22255
:03000000020142B8
:0C014200787FE4F6D8FD75810E020006FF
:1000A600BB010689828A83E0225002E722BBFE0258
:0900B600E32289828A83E493228B
:1000BF00EB9FF5F0EA9E42F0E99D42F0E89C45F097
:0100CF00220E
:00000001FF
