:1004AC0043686520646F204175746F004368652054
:1004BC00646F2068656E2067696F0043686520640F
:1004CC006F6E672054696D65720054696D65723D7D
:1004DC00004E6869657420646F2074686170005404
:1004EC00656D705F4C6F773D004E68696574206474
:1004FC006F2063616F0054656D705F486967683D7C
:10050C00004E67756F6E6720646F20616D00484DFB
:10051C00545F54686572686F6C643D00253D002023
:10052C003E3C20006F433D0054696D6572203D00D8
:10053C002043686520646F20747520646F6E6700BB
:10054C0044616E67206B686F6920646F6E672E2E36
:10055C002E00204175746F2F4D616E75616C203FBC
:01056C00008E
:1008ED0001470101510001420001221E014C20046B
:1008FD003E00000000024F0000023A000001210AF4
:0C090D00012500013C00014800014E00E3
:10094200D200C280D2814380F0300011D282D20024
:0D095200E580339200C282D282C28280EC26
:01095F002275
:10099C00EF54F053800F4280D282C282EFC454F0E5
:0909AC0053800F4280D282C28206
:0109B500221F
:0E0A2C00120942C280C2818F80D282C2822211
:0A0A3A00120942C280C28102099C29
:0A0A4400120942D280C28102099C0F
:0609D0007BFF7A0479DDD3
:1009D600120273FF600C120A44740129F9E43AFA10
:0309E60080EE227E
:030A0D00E4FDFF06
:0D0A1000EFC4333354C044804DFF020A3A56
:050006007F01020A3A2F
:1009E9007F28120A2C120A3A7F0C120A3A7F060251
:0209F9000A3AB8
:10072600E4F508AB07FAEB6053C374809480500C71
:100736007F2D120A44C3E49BFBE49AFAEB4A602835
:100746007C007D0AAF03AE0212028CAF05AE08052F
:100756000874092EF8A6077C007D0AAF03AE0212C4
:10076600028CAA06AB0780D4E50860151508740943
:100776002508F8E62430FF120A4480EC7F30120A7E
:01078600442E
:01078700224F
:040A1D007FE87E03ED
:0B0A2100EF1FAC0670011E4C70F622A7
:0709FB001209B67F647E00C3
:0B0A0200EF1FAC0670011E4C70F622C6
:10091A00E4FDD2A07F08FE120A02C2A07F507E0028
:10092A00120A02D2A07F0E7E00120A02A2A0E433AB
:08093A00FD7F147E00020A0299
:10096000E4FB7D08C2A0EBC313FBD2A030A003437D
:0D09700003807F047E00120A02DDE9AF0360
:01097D002257
:0209B600AD078B
:1009B8007B08C2A0ED1392A07F057E00120A02D226
:0709C800A0EDC313FDDBEB02
:0109CF002205
:10088300E4FAFFF50812091A7FCC1209B67F441265
:1008930009FB12091A7FCC1209B67FBE1209FB129B
:1008A3000960AA07120960EFC454F0FFEA54F0C4C8
:0408B300540F2FFFB0
:0108B700221E
:1008B8001208838F4B1208838F4DE54DC3949650D1
:1008C80023E54B24FBFFE54DD39F4018E54B24055A
:1008D800FFE433FEC3E54D9FEE6480F874809850C2
:0508E80003854D3D22D7
:10084600209039120A1D2090333090FD754701051E
:1008560051E551B40203E4F551E551700EF5481225
:1008660000067BFF7A0479AC1209D6E551B4010C77
:0D0876001200067BFF7A0479B81209D62221
:10032500209152E5516401704C120A1D20910D3047
:1003350091FD053CE53CB40303E4F53CE53C146064
:100345000C14600E2402700D75251480087525287F
:10035500800375253C120006120A0D7BFF7A04798D
:10036500C71209D67F01120A107A0479D61209D666
:10037500AF2512072620940E120A1D2094083094EA
:10038500FDE4F547F54820927B120A1D2092753051
:1003950092FD0542E542B40303E4F542E5427019D6
:1003A500120006120A0D1209D07F01120A107A04F2
:1003B50079EB1209D6AF228048E54264017022121A
:1003C5000006E4FDFF120A107BFF7A0479F5120995
:1003D500D67F01120A107A0579021209D6AF4C8030
:1003E50020120006E4FDFF120A107BFF7A05790D45
:1003F5001209D67F01120A107A05791A1209D6AFA9
:10040500211207263093030204AB120A1D30930311
:100415000204AB3093FDE5427025E522C394645098
:10042500020522120006E4FDFF120A101209D07F10
:1004350001120A107A0479EB1209D6AF228064E51D
:10044500426401702BE54CC394645002054C1200C4
:1004550006E4FDFF120A107BFF7A0479F51209D62E
:100465007F01120A107A0579021209D6AF4C803342
:10047500E54264027030E521C394645006740A2590
:1004850021F521120006E4FDFF120A107BFF7A0513
:10049500790D1209D67F01120A107A05791A120907
:0704A500D6AF211207262249
:10060E00C3E5509490E54F94015003020699054EB0
:10061E00E54E640A7028AD48ED3395E0FCC3ED95C8
:10062E00257480F86C985011E5249521748065230B
:10063E009840060548D2A18002C2A1E4F54E1208E8
:10064E00B8120006E4FDFF120A107BFF7A05792826
:10065E001209D6AF241207267BFF7A05792B1209D1
:10066E00D67A0579301209D6AF3D120726E4FD7F02
:10067E0001120A107BFF7A0579341209D6C3E525DB
:0C068E009548FF120726E4F54FF55022B6
:1007E800C3E5509490E54F940140521208B8E53D96
:1007F800C395225002D2A1E53DD3954C4002C2A137
:10080800120006E4FDFF120A107BFF7A05793C12FC
:1008180009D67F01120A107A0579281209D6AF2461
:100828001207267BFF7A05792B1209D67A057930CB
:0E0838001209D6AF3D120726E4F54FF5502207
:1007880012091A1209E91200067BFF7A05794C1240
:1007980009D6120A1D75A883D28875B80175890211
:1007A800758A06758C06D28C1208838F3D12000656
:1007B8007BFF7A05795E1209D6E4F551120846E501
:1007C800477013E55170051207E880F0E551B40150
:1007D800EB12060E80E6120325E4F548C2A180DC80
:0300030002097E71
:10097E00C0E0C0D0E5412401F541E43540F540E446
:0E098E00353FF53FE4353EF53ED0D0D0E032A7
:03000B0002056D7E
:10056D00C0E0C0F0C083C082C0D075D000C000C054
:10057D0001C002C003C004C005C006C0070550E598
:10058D00507002054F053BE53B7002053AC394A040
:10059D00E53A940F4050854146854045853F448559
:1005AD003E4374C09546FF741C9545FEE49544FD8D
:1005BD00E49543FCE41201B4E4FBFA79C8784212E5
:1005CD00000E7B007AA079D578441201171201F242
:1005DD008E238F24753A00753B00754100754000E0
:1005ED00753F00753E00D007D006D005D004D0036E
:1005FD00D002D001D000D0D0D082D083D0F0D0E0C6
:01060D0032BA
:10000E00EC4D6011E8497017ED33EC3304600DE4EC
:10001E00FCFFFEFD22E933E8330470F802025E12A3
:10002E00022958046009E4CC2481500628500902A4
:10003E000268284003020265C0E0EB4A7044B980B2
:10004E0006D0E0FB020254EF4E701CBD8008EBFFA1
:10005E00EAFEE9FD80EBE98DF0A4FEE5F00200F783
:10006E00E9CDF9EAFEEBFFEF89F0A4FCE5F0CE89CD
:10007E00F0A42EFFE435F0CD89F0A42DFEE435F08A
:10008E008067EF4E7005BD80D780C3EF8BF0A4ACB8
:10009E00F0EE8BF0A42CFCE435F0F8EF8AF0A42CF3
:1000AE00E5F038FCE433CB8DF0A42CFCE5F03BF806
:1000BE00EE8AF0A42CFCE5F038F8E433CF89F0A4F6
:1000CE002CFCE5F038CF3400CE89F0A42FFFE5F0FC
:1000DE003EFEE433C98DF0A42EFEE5F039CD8AF054
:1000EE00A42FFFE5F03EFEE43DFD33D0E0FB5007CC
:1000FE000BBB000F020268EC2CFCEF33FFEE33FE5D
:06010E00ED33FD0202408A
:10011400020268EC5D046005E85904700302025EA3
:10012400120229580460F6EC4860F2EC7004FDFEFB
:10013400FF22C860DB2481C85009C39860025006BE
:100144000202659850CAF582E9294B4A7005AB82D0
:1001540002025475F0007C1A7880C3EF9BEE9AED8E
:1001640099400DC3EF9BFFEE9AFEED99FDE842F036
:10017400DC23ACF0D0E0FFD0E0FED0E0FDAB822089
:10018400E7101BEB60BAEC2CFCEF33FFEE33FEED13
:1001940033FD020240E803F830E705C0F075F000D3
:1001A400EF2FFFEE33FEED33FD40B830E7C280AAF7
:1001B40075F020800E75F010800575F0087D007EC6
:1001C400007F003392D530D5031202C2EC334010C5
:1001D400EF33FFEE33FEED33FDEC33FCD5F0ED22CF
:0E01E400E5F0247EA2D513CC92E7CDCEFF220B
:1001F200EDD2E7CD33EC3392D524814006E4FFFE05
:10020200FDFC22FCE4CFCECDCC24E0501174FF8063
:10021200EDC3CC13CCCD13CDCE13CECF13CF047000
:07022200F030D5DE0202C23C
:10022900E9D2E7C933E833F892D5EDD2E7CD33EC1B
:0702390033FC5002B2D52294
:10024000EC30E7100FBF000C0EBE00080DBD00041F
:100250000BEB6014A2D5EB13FCED92E7FD2274FFCB
:10026000FCFDFEFF22E480F8A2D574FF13FC7D8024
:03027000E480EF38
:0300000002069A5B
:0C069A00787FE4F6D8FD7581510206E17E
:10027300BB010689828A83E0225002E722BBFE0289
:09028300E32289828A83E49322BC
:10028C00C2D5EC30E709B2D5E4C39DFDE49CFCEE8D
:10029C0030E715B2D5E4C39FFFE49EFE1202D0C333
:1002AC00E49DFDE49CFC80031202D030D507C3E42E
:0602BC009FFFE49EFE22FC
:0E02C200C3E49FFFE49EFEE49DFDE49CFC224D
:1006A600020788E493A3F8E493A34003F68001F2DB
:1006B60008DFF48029E493A3F85407240CC8C33355
:1006C600C4540F4420C8834004F456800146F6DF24
:1006D600E4800B01020408102040809008EDE47EBF
:1006E600019360BCA3FF543F30E509541FFEE49319
:1006F600A360010ECF54C025E060A840B8E493A3E0
:10070600FAE493A3F8E493A3C8C582C8CAC583CA0A
:10071600F0A3C8C582C8CAC583CADFE9DEE780BEC2
:0109190000DD
:1002D000BC000BBE0029EF8DF084FFADF022E4CC12
:1002E000F875F008EF2FFFEE33FEEC33FCEE9DECDB
:1002F000984005FCEE9DFE0FD5F0E9E4CEFD22ED21
:10030000F8F5F0EE8420D21CFEADF075F008EF2F6A
:10031000FFED33FD4007985006D5F0F222C398FD5B
:050320000FD5F0EA22F8
:00000001FF
