:100AA0004C415420004C4F4E004750532053595353
:040AB00054454D005C
:0C0AC6000650244750524D430208000027
:0809F000C291D2927F017E004A
:1009F800E4FDFCC3ED9FEC9E5015E4FBFA0BBB0035
:0F0A0800010ABA04F8BBFBF50DBD00010C80E438
:010A170022BC
:0A0ADF008FA0C2901209F0C292220B
:080AB400F8E6FF120ABCE4FFA2
:0A0ABC008FA0D2901209F0C292221E
:060991008B6A8A6B896C81
:10099700E4F56DF56EAB6AAA6BA96C856E82856D01
:1009A700831209C3FF6014120ABC056EE56E70025C
:0B09B700056D7F0A7E001209F880DA4F
:0109C2002212
:0C0AD300758920758DFD759850D28E221B
:100A3F00E4FFFEFDFC740A2DF8E6B42C0DAB050F98
:100A4F00EF70010E142459F8A6030DBD00010CED33
:050A5F0064464C70E04C
:010A6400226F
:100A8B00E4F5A8120A3F12088C1208EAE4F508F5FF
:050A9B000975A890227E
:0300230002094887
:10094800C0E0C0D075D000C000C006C0070509E5EA
:10095800097002050814240AF8A699C3E509940742
:10096800E50894005016AF09744F2FF8E6FE740995
:100978002FF8E66E6006750800750900C298D00762
:09098800D006D000D0D0D0E0323E
:100A18007F40120ADF7F0A120ABC7F11120ABC7FCC
:100A280011120ABC7F0A120ABCE4120AB6E4FF12C9
:070A38000ABCE4FF020ABC46
:10088C00AF5BEF3395E0F5688F69120A187F801221
:10089C000ADF7BFF7A0A79A0120991740B2569F89B
:1008AC00E6FF120ABC740C2569120AB47557007560
:1008BC005803E5692558240AF8E6FF120ABC0558C6
:1008CC00E55870020557D39409E557940040E37F2F
:0E08DC0027120ABC74152569F8E6FF020ABC53
:1008EA00AF5DEF3395E0F5688F69120A187FC01281
:1008FA000ADF7BFF7A0A79A5120991740B2569F838
:10090A00E6FF120ABC740C2569120AB47557007501
:10091A005803E5692558240AF8E6FF120ABC055867
:10092A00E55870020557D3940AE557940040E37FCF
:0E093A0027120ABC74162569F8E6FF020ABCF3
:100A6500120AD37F38120ADF7F0C120ADF7BFF7A66
:100A75000A79A912099175A890E509644545087098
:060A8500F8120A8B80F359
:03000000020800F3
:0C080000787FE4F6D8FD75816E02084791
:1009C300BB010CE58229F582E5833AF583E02250E9
:1009D30006E92582F8E622BBFE06E92582F8E22233
:0D09E300E58229F582E5833AF583E493224D
:10080C00020A65E493A3F8E493A34003F68001F293
:10081C0008DFF48029E493A3F85407240CC8C333ED
:10082C00C4540F4420C8834004F456800146F6DFBC
:10083C00E4800B0102040810204080900AC6E47E7C
:10084C00019360BCA3FF543F30E509541FFEE493B1
:10085C00A360010ECF54C025E060A840B8E493A378
:10086C00FAE493A3F8E493A3C8C582C8CAC583CAA3
:10087C00F0A3C8C582C8CAC583CADFE9DEE780BE5B
:010AD2000023
:00000001FF
