:100120000F080028000000000000CDEF12AA834F46
:1001300050041BCDEF12AA08274040404040000069
:0B01400000081F00000000000000008D
:04021F00D294E4FF92
:10022300AD071FED600BE4FEEEC3942350F20E8086
:01023300F7D3
:0102340022A7
:1001C500E4FDFCC3ED9FEC9E50070DBD00010C80C6
:1001D500F2E4FCFDC3ED9FEC9E50070DBD00010C44
:0201E50080F2A6
:0101E70022F5
:0C029500D2B57F28120223C2B4C294220A
:0F026800758CF5758A33D2A9C28DD28CD2AF2294
:10024700C2A9EF540125E02417F8E4F608F6D2A96D
:010257002284
:0F025800C2A9EF25E02417F8E6FE08E6FFD2A9B9
:010267002274
:0F027700759850758921758DFD758BFDD28E227E
:080003008F993099FDC299228A
:04014C002DF8E6FFA5
:10015000C2960000E4FEEF30E706D2C3D2978004D7
:10016000C2C3C297EF25E0FFD2960000C2960000FE
:040170000EBE08E2D5
:010174002268
:1001E800E4FFD297D2C3C2960000FEEF25E0FFD20B
:0F01F8009600003097010FC29600000EBE08EC73
:0102070022D4
:0F02860012021F7F50120150C2947F0202022306
:1002350012021F74504401FF120150C2947F020242
:02024500022392
:10020800C2B412021FE4FD740812014C0DBD0FF7B1
:07021800C2947F1E020223C5
:10019E00120286D2B47F01120223E4FD741B1201F7
:1001AE004C0DBD04F7E4FD742712014C0DBD05F78F
:0701BE00C2B47F0D02022311
:1000E100120235D2B47F0112024720C2137F0112DE
:1000F1000258D3EF94E8EE940340EFC2B47F00229C
:10010100E4FD30C20D1201E8741F2DF8A6070DBDE4
:0E01110005F030C2051201E880F8C2B47F018B
:01011F0022BD
:03000B000201757A
:10017500C0E0C0D0C2AF74F5258CF58C7433258AE8
:10018500F58A0518E51870020517051AE51A7002B3
:090195000519D2AFD0D0D0E03240
:10009A00120295120268120277C2C1C2C07F207E84
:1000AA004E1201C5D2C1D2C01202087FF47E0112DB
:1000BA0001C51200E1BF01FAC2C17F887E13120195
:1000CA00C5D2C1E4FBEBC3940550E7741F2BF8E6D5
:0700DA00FF1200030B80EE92
:0300000002000EED
:0C000E00787FE4F6D8FD75812E020055C5
:10001A0002009AE493A3F8E493A34003F68001F262
:10002A0008DFF48029E493A3F85407240CC8C333E7
:10003A00C4540F4420C8834004F456800146F6DFB6
:10004A00E4800B0102040810204080900120E47E25
:10005A00019360BCA3FF543F30E509541FFEE493AB
:10006A00A360010ECF54C025E060A840B8E493A372
:10007A00FAE493A3F8E493A3C8C582C8CAC583CA9D
:10008A00F0A3C8C582C8CAC583CADFE9DEE780BE55
:01014B0000B3
:00000001FF
